{
  "_format": "hh-sol-artifact-1",
  "contractName": "ResolutionsVoting",
  "sourceName": "contracts/ResolutionsVoting.sol",
  "abi": [
    {
      "inputs": [],
      "stateMutability": "nonpayable",
      "type": "constructor"
    },
    {
      "inputs": [
        {
          "internalType": "address",
          "name": "owner",
          "type": "address"
        }
      ],
      "name": "OwnableInvalidOwner",
      "type": "error"
    },
    {
      "inputs": [
        {
          "internalType": "address",
          "name": "account",
          "type": "address"
        }
      ],
      "name": "OwnableUnauthorizedAccount",
      "type": "error"
    },
    {
      "anonymous": false,
      "inputs": [
        {
          "indexed": true,
          "internalType": "address",
          "name": "previousOwner",
          "type": "address"
        },
        {
          "indexed": true,
          "internalType": "address",
          "name": "newOwner",
          "type": "address"
        }
      ],
      "name": "OwnershipTransferred",
      "type": "event"
    },
    {
      "anonymous": false,
      "inputs": [
        {
          "indexed": false,
          "internalType": "string",
          "name": "hashDescription",
          "type": "string"
        },
        {
          "indexed": false,
          "internalType": "uint256",
          "name": "voteId",
          "type": "uint256"
        },
        {
          "indexed": false,
          "internalType": "uint256",
          "name": "startDate",
          "type": "uint256"
        },
        {
          "indexed": false,
          "internalType": "uint256",
          "name": "endDate",
          "type": "uint256"
        },
        {
          "indexed": false,
          "internalType": "address",
          "name": "adminAddress",
          "type": "address"
        },
        {
          "indexed": false,
          "internalType": "enum ResolutionsVoting.Role",
          "name": "role",
          "type": "uint8"
        },
        {
          "indexed": false,
          "internalType": "bool",
          "name": "isEnabled",
          "type": "bool"
        }
      ],
      "name": "VoteCompleted",
      "type": "event"
    },
    {
      "anonymous": false,
      "inputs": [
        {
          "indexed": false,
          "internalType": "string",
          "name": "hashDescription",
          "type": "string"
        },
        {
          "indexed": false,
          "internalType": "uint256",
          "name": "voteId",
          "type": "uint256"
        },
        {
          "indexed": false,
          "internalType": "uint256",
          "name": "startDate",
          "type": "uint256"
        },
        {
          "indexed": false,
          "internalType": "uint256",
          "name": "endDate",
          "type": "uint256"
        },
        {
          "indexed": false,
          "internalType": "address",
          "name": "adminAddress",
          "type": "address"
        },
        {
          "indexed": false,
          "internalType": "enum ResolutionsVoting.Role",
          "name": "role",
          "type": "uint8"
        },
        {
          "indexed": false,
          "internalType": "bool",
          "name": "isEnabled",
          "type": "bool"
        }
      ],
      "name": "VoteCreatedActivated",
      "type": "event"
    },
    {
      "anonymous": false,
      "inputs": [
        {
          "indexed": false,
          "internalType": "uint256",
          "name": "voteId",
          "type": "uint256"
        },
        {
          "indexed": false,
          "internalType": "address",
          "name": "voterAddress",
          "type": "address"
        },
        {
          "indexed": false,
          "internalType": "bool",
          "name": "isRegistered",
          "type": "bool"
        },
        {
          "indexed": false,
          "internalType": "enum ResolutionsVoting.Role",
          "name": "role",
          "type": "uint8"
        },
        {
          "indexed": false,
          "internalType": "string",
          "name": "voteChoice",
          "type": "string"
        }
      ],
      "name": "Voted",
      "type": "event"
    },
    {
      "anonymous": false,
      "inputs": [
        {
          "indexed": false,
          "internalType": "address",
          "name": "voterAddress",
          "type": "address"
        },
        {
          "indexed": false,
          "internalType": "bool",
          "name": "isRegistered",
          "type": "bool"
        },
        {
          "indexed": false,
          "internalType": "enum ResolutionsVoting.Role",
          "name": "role",
          "type": "uint8"
        }
      ],
      "name": "VoterRegistered",
      "type": "event"
    },
    {
      "inputs": [
        {
          "internalType": "string",
          "name": "_hashDescription",
          "type": "string"
        },
        {
          "internalType": "uint256",
          "name": "_startDate",
          "type": "uint256"
        },
        {
          "internalType": "uint256",
          "name": "_endDate",
          "type": "uint256"
        }
      ],
      "name": "addVote",
      "outputs": [],
      "stateMutability": "nonpayable",
      "type": "function"
    },
    {
      "inputs": [
        {
          "internalType": "address",
          "name": "_addr",
          "type": "address"
        },
        {
          "internalType": "enum ResolutionsVoting.Role",
          "name": "_role",
          "type": "uint8"
        }
      ],
      "name": "addVoter",
      "outputs": [],
      "stateMutability": "nonpayable",
      "type": "function"
    },
    {
      "inputs": [],
      "name": "getCurrentVote",
      "outputs": [
        {
          "components": [
            {
              "internalType": "string",
              "name": "hashDescription",
              "type": "string"
            },
            {
              "internalType": "uint256",
              "name": "startDate",
              "type": "uint256"
            },
            {
              "internalType": "uint256",
              "name": "endDate",
              "type": "uint256"
            },
            {
              "internalType": "bool",
              "name": "isEnabled",
              "type": "bool"
            }
          ],
          "internalType": "struct ResolutionsVoting.Vote",
          "name": "",
          "type": "tuple"
        }
      ],
      "stateMutability": "view",
      "type": "function"
    },
    {
      "inputs": [
        {
          "internalType": "address",
          "name": "_addr",
          "type": "address"
        }
      ],
      "name": "getRegisteredVoter",
      "outputs": [
        {
          "components": [
            {
              "internalType": "bool",
              "name": "isRegistered",
              "type": "bool"
            },
            {
              "internalType": "bool",
              "name": "hasVoted",
              "type": "bool"
            },
            {
              "internalType": "enum ResolutionsVoting.Role",
              "name": "role",
              "type": "uint8"
            },
            {
              "internalType": "string",
              "name": "voteChoice",
              "type": "string"
            }
          ],
          "internalType": "struct ResolutionsVoting.Voter",
          "name": "",
          "type": "tuple"
        }
      ],
      "stateMutability": "view",
      "type": "function"
    },
    {
      "inputs": [],
      "name": "getRegisteredVoterForVoter",
      "outputs": [
        {
          "components": [
            {
              "internalType": "bool",
              "name": "isRegistered",
              "type": "bool"
            },
            {
              "internalType": "bool",
              "name": "hasVoted",
              "type": "bool"
            },
            {
              "internalType": "enum ResolutionsVoting.Role",
              "name": "role",
              "type": "uint8"
            },
            {
              "internalType": "string",
              "name": "voteChoice",
              "type": "string"
            }
          ],
          "internalType": "struct ResolutionsVoting.Voter",
          "name": "",
          "type": "tuple"
        }
      ],
      "stateMutability": "view",
      "type": "function"
    },
    {
      "inputs": [
        {
          "internalType": "uint256",
          "name": "_voteId",
          "type": "uint256"
        }
      ],
      "name": "getVote",
      "outputs": [
        {
          "components": [
            {
              "internalType": "string",
              "name": "hashDescription",
              "type": "string"
            },
            {
              "internalType": "uint256",
              "name": "startDate",
              "type": "uint256"
            },
            {
              "internalType": "uint256",
              "name": "endDate",
              "type": "uint256"
            },
            {
              "internalType": "bool",
              "name": "isEnabled",
              "type": "bool"
            }
          ],
          "internalType": "struct ResolutionsVoting.Vote",
          "name": "",
          "type": "tuple"
        }
      ],
      "stateMutability": "view",
      "type": "function"
    },
    {
      "inputs": [
        {
          "internalType": "uint256",
          "name": "_voteId",
          "type": "uint256"
        },
        {
          "internalType": "address",
          "name": "_addr",
          "type": "address"
        }
      ],
      "name": "getVotedVoter",
      "outputs": [
        {
          "components": [
            {
              "internalType": "bool",
              "name": "isRegistered",
              "type": "bool"
            },
            {
              "internalType": "bool",
              "name": "hasVoted",
              "type": "bool"
            },
            {
              "internalType": "enum ResolutionsVoting.Role",
              "name": "role",
              "type": "uint8"
            },
            {
              "internalType": "string",
              "name": "voteChoice",
              "type": "string"
            }
          ],
          "internalType": "struct ResolutionsVoting.Voter",
          "name": "",
          "type": "tuple"
        }
      ],
      "stateMutability": "view",
      "type": "function"
    },
    {
      "inputs": [
        {
          "internalType": "uint256",
          "name": "_voteId",
          "type": "uint256"
        }
      ],
      "name": "getVotedVoterForVoter",
      "outputs": [
        {
          "components": [
            {
              "internalType": "bool",
              "name": "isRegistered",
              "type": "bool"
            },
            {
              "internalType": "bool",
              "name": "hasVoted",
              "type": "bool"
            },
            {
              "internalType": "enum ResolutionsVoting.Role",
              "name": "role",
              "type": "uint8"
            },
            {
              "internalType": "string",
              "name": "voteChoice",
              "type": "string"
            }
          ],
          "internalType": "struct ResolutionsVoting.Voter",
          "name": "",
          "type": "tuple"
        }
      ],
      "stateMutability": "view",
      "type": "function"
    },
    {
      "inputs": [],
      "name": "owner",
      "outputs": [
        {
          "internalType": "address",
          "name": "",
          "type": "address"
        }
      ],
      "stateMutability": "view",
      "type": "function"
    },
    {
      "inputs": [],
      "name": "renounceOwnership",
      "outputs": [],
      "stateMutability": "nonpayable",
      "type": "function"
    },
    {
      "inputs": [
        {
          "internalType": "string",
          "name": "_voteChoice",
          "type": "string"
        }
      ],
      "name": "setVoteChoice",
      "outputs": [],
      "stateMutability": "nonpayable",
      "type": "function"
    },
    {
      "inputs": [],
      "name": "tallyVotes",
      "outputs": [],
      "stateMutability": "nonpayable",
      "type": "function"
    },
    {
      "inputs": [
        {
          "internalType": "address",
          "name": "newOwner",
          "type": "address"
        }
      ],
      "name": "transferOwnership",
      "outputs": [],
      "stateMutability": "nonpayable",
      "type": "function"
    },
    {
      "inputs": [],
      "name": "voteId",
      "outputs": [
        {
          "internalType": "uint256",
          "name": "",
          "type": "uint256"
        }
      ],
      "stateMutability": "view",
      "type": "function"
    }
  ],
  "bytecode": "0x608060405234801561001057600080fd5b50338061003757604051631e4fbdf760e01b81526000600482015260240160405180910390fd5b6100408161009a565b506001600260006100596000546001600160a01b031690565b6001600160a01b031681526020810191909152604001600020805462ff0000191662010000836001811115610090576100906100ea565b0217905550610100565b600080546001600160a01b038381166001600160a01b0319831681178455604051919092169283917f8be0079c531659141344cd1fd0a4f28419497f9722a3daafe3b4186f6b6457e09190a35050565b634e487b7160e01b600052602160045260246000fd5b6119b980620001106000396000f3fe608060405234801561001057600080fd5b50600436106100ea5760003560e01c80638f70251f1161008c578063df06ddb511610066578063df06ddb5146101b9578063f2ec8ab5146101c1578063f2fde38b146101d4578063fbb39651146101e757600080fd5b80638f70251f1461018b578063943447aa1461019e578063dc56028d146101b157600080fd5b80635a55c1f0116100c85780635a55c1f0146101355780636776e7c614610155578063715018a6146101685780638da5cb5b1461017057600080fd5b8063378a2178146100ef578063382ea4a1146100f95780634f9b3ed214610122575b600080fd5b6100f76101fe565b005b61010c6101073660046113b1565b6103c0565b6040516101199190611451565b60405180910390f35b61010c61013036600461149f565b610562565b61014861014336600461149f565b610634565b60405161011991906114b8565b61010c610163366004611500565b61079e565b6100f7610947565b6000546040516001600160a01b039091168152602001610119565b6100f7610199366004611575565b61095b565b6100f76101ac3660046115c6565b610bb2565b610148610deb565b61010c610f57565b6100f76101cf366004611608565b6110ce565b6100f76101e23660046113b1565b611295565b6101f060015481565b604051908152602001610119565b60013360009081526002602052604090205462010000900460ff16600181111561022a5761022a6113d3565b146102735760405162461bcd60e51b81526020600482015260146024820152732cb7ba93b932903737ba1030b71030b236b4b71760611b60448201526064015b60405180910390fd5b60015460009081526004602052604090206002015442116102d65760405162461bcd60e51b815260206004820152601860248201527f566f74696e672073657373696f6e2066696e69736865642e0000000000000000604482015260640161026a565b60015460009081526004602052604090206003015460ff1661033a5760405162461bcd60e51b815260206004820181905260248201527f43757272656e7420766f746520686173206265656e20636f6d706c657465642e604482015260640161026a565b600180546000908152600460209081526040808320600301805460ff1916905583548084528184209485015460028087015433808852919095528386205493517f194b8bd2b1138a0a8692348047a5df1e9fc107bf592850542c61b084bc756d8b976103b6979096949593949362010000900460ff169161167d565b60405180910390a1565b604080516080810182526000808252602082018190529181019190915260608082015260013360009081526002602052604090205462010000900460ff16600181111561040f5761040f6113d3565b146104535760405162461bcd60e51b81526020600482015260146024820152732cb7ba93b932903737ba1030b71030b236b4b71760611b604482015260640161026a565b6001600160a01b0382166000908152600260209081526040918290208251608081018452815460ff80821615158352610100820481161515948301949094529093919291840191620100009091041660018111156104b3576104b36113d3565b60018111156104c4576104c46113d3565b81526020016001820180546104d890611643565b80601f016020809104026020016040519081016040528092919081815260200182805461050490611643565b80156105515780601f1061052657610100808354040283529160200191610551565b820191906000526020600020905b81548152906001019060200180831161053457829003601f168201915b50505050508152505090505b919050565b604080516080810182526000808252602080830182905282840182905260608084015233825260029052919091205460ff166105d65760405162461bcd60e51b81526020600482015260136024820152722cb7ba93b932903737ba1030903b37ba32b91760691b604482015260640161026a565b60008281526003602090815260408083203384528252918290208251608081018452815460ff80821615158352610100820481161515948301949094529093919291840191620100009091041660018111156104b3576104b36113d3565b61066160405180608001604052806060815260200160008152602001600081526020016000151581525090565b3360009081526002602052604090205460ff166106b65760405162461bcd60e51b81526020600482015260136024820152722cb7ba93b932903737ba1030903b37ba32b91760691b604482015260640161026a565b60408051608081018252600084815260046020529190912080548291906106dc90611643565b80601f016020809104026020016040519081016040528092919081815260200182805461070890611643565b80156107555780601f1061072a57610100808354040283529160200191610755565b820191906000526020600020905b81548152906001019060200180831161073857829003601f168201915b5050509183525050600084815260046020818152604080842060018101548387015260028101549186019190915292879052526003015460ff1615156060909101529050919050565b604080516080810182526000808252602082018190529181019190915260608082015260013360009081526002602052604090205462010000900460ff1660018111156107ed576107ed6113d3565b146108315760405162461bcd60e51b81526020600482015260146024820152732cb7ba93b932903737ba1030b71030b236b4b71760611b604482015260640161026a565b60008381526003602090815260408083206001600160a01b03861684528252918290208251608081018452815460ff8082161515835261010082048116151594830194909452909391929184019162010000909104166001811115610898576108986113d3565b60018111156108a9576108a96113d3565b81526020016001820180546108bd90611643565b80601f01602080910402602001604051908101604052809291908181526020018280546108e990611643565b80156109365780601f1061090b57610100808354040283529160200191610936565b820191906000526020600020905b81548152906001019060200180831161091957829003601f168201915b505050505081525050905092915050565b61094f6112ec565b6109596000611332565b565b60013360009081526002602052604090205462010000900460ff166001811115610987576109876113d3565b146109cb5760405162461bcd60e51b81526020600482015260146024820152732cb7ba93b932903737ba1030b71030b236b4b71760611b604482015260640161026a565b818180821080156109dc5750428210155b80156109e757504281115b610a595760405162461bcd60e51b815260206004820152602a60248201527f537461727420616e6420656e64206461746573206d75737420626520696e207460448201527f6865206675747572652e00000000000000000000000000000000000000000000606482015260840161026a565b60015460009081526004602052604090206003015460ff1615610ae45760405162461bcd60e51b815260206004820152602860248201527f43757272656e7420766f746520686173206e6f7420796574206265656e20636f60448201527f6d706c657465642e000000000000000000000000000000000000000000000000606482015260840161026a565b600160008154610af39061174f565b909155506001546000908152600460205260409020610b138688836117dd565b50600180546000908152600460209081526040808320840188905583548352808320600290810188905584548452818420600301805460ff19168617905584543380865291909352928190205490517fcdf086649ae24d107364cf7e731e8d348815fed4c1735e4e498ff3a6a3b1d84994610ba2948c948c9490938c938c939262010000900460ff16916118c7565b60405180910390a1505050505050565b3360009081526002602052604090205460ff16610c075760405162461bcd60e51b81526020600482015260136024820152722cb7ba93b932903737ba1030903b37ba32b91760691b604482015260640161026a565b60018054600090815260046020526040902090810154600290910154428211801590610c335750804211155b610ca55760405162461bcd60e51b815260206004820152603060248201527f566f74696e672073657373696f6e206e6f74207965742073746172746564206f60448201527f7220697427732066696e69736865642e00000000000000000000000000000000606482015260840161026a565b6001546000908152600360209081526040808320338452909152902054610100900460ff1615610d175760405162461bcd60e51b815260206004820152601760248201527f596f75206861766520616c726561647920766f7465642e000000000000000000604482015260640161026a565b60018054600090815260036020818152604080842033808652908352818520805460ff191687179055855485528383528185208186528352818520805461ff00191661010017905585548552928252808420928452919052902001610d7d8486836117dd565b50600180546000818152600360209081526040808320338085529252918290205491517f93322ddad2ad9cd79cc339488e1f9cbeb62f8913e8e1565f9d576a1f296a014194610ddd949390916201000090910460ff16908a908a90611920565b60405180910390a150505050565b610e1860405180608001604052806060815260200160008152602001600081526020016000151581525090565b3360009081526002602052604090205460ff16610e6d5760405162461bcd60e51b81526020600482015260136024820152722cb7ba93b932903737ba1030903b37ba32b91760691b604482015260640161026a565b6040805160808101825260015460009081526004602052919091208054829190610e9690611643565b80601f0160208091040260200160405190810160405280929190818152602001828054610ec290611643565b8015610f0f5780601f10610ee457610100808354040283529160200191610f0f565b820191906000526020600020905b815481529060010190602001808311610ef257829003601f168201915b505050918352505060018054600081815260046020818152604080842095860154828801526002860154908701529290915290526003015460ff161515606090910152905090565b604080516080810182526000808252602080830182905282840182905260608084015233825260029052919091205460ff16610fcb5760405162461bcd60e51b81526020600482015260136024820152722cb7ba93b932903737ba1030903b37ba32b91760691b604482015260640161026a565b336000908152600260209081526040918290208251608081018452815460ff8082161515835261010082048116151594830194909452909391929184019162010000909104166001811115611022576110226113d3565b6001811115611033576110336113d3565b815260200160018201805461104790611643565b80601f016020809104026020016040519081016040528092919081815260200182805461107390611643565b80156110c05780601f10611095576101008083540402835291602001916110c0565b820191906000526020600020905b8154815290600101906020018083116110a357829003601f168201915b505050505081525050905090565b60013360009081526002602052604090205462010000900460ff1660018111156110fa576110fa6113d3565b1461113e5760405162461bcd60e51b81526020600482015260146024820152732cb7ba93b932903737ba1030b71030b236b4b71760611b604482015260640161026a565b600180546000908152600460205260409020015442106111a05760405162461bcd60e51b815260206004820152601d60248201527f566f7465727320726567697374726174696f6e2066696e69736865642e000000604482015260640161026a565b6001600160a01b03821660009081526002602052604090205460ff16156112095760405162461bcd60e51b815260206004820152601960248201527f566f74657220616c726561647920726567697374657265642e00000000000000604482015260640161026a565b6001600160a01b03821660009081526002602052604090208054600160ff1982168117835583929162ff00ff191681179062010000908490811115611250576112506113d3565b02179055507f97332bf0407d019c99d2a08f382731e7bc98f010ed762be5bc84628ae7b6358e826001836040516112899392919061195e565b60405180910390a15050565b61129d6112ec565b6001600160a01b0381166112e0576040517f1e4fbdf70000000000000000000000000000000000000000000000000000000081526000600482015260240161026a565b6112e981611332565b50565b6000546001600160a01b03163314610959576040517f118cdaa700000000000000000000000000000000000000000000000000000000815233600482015260240161026a565b600080546001600160a01b038381167fffffffffffffffffffffffff0000000000000000000000000000000000000000831681178455604051919092169283917f8be0079c531659141344cd1fd0a4f28419497f9722a3daafe3b4186f6b6457e09190a35050565b80356001600160a01b038116811461055d57600080fd5b6000602082840312156113c357600080fd5b6113cc8261139a565b9392505050565b634e487b7160e01b600052602160045260246000fd5b6002811061140757634e487b7160e01b600052602160045260246000fd5b9052565b6000815180845260005b8181101561143157602081850181015186830182015201611415565b506000602082860101526020601f19601f83011685010191505092915050565b602081528151151560208201526020820151151560408201526000604083015161147e60608401826113e9565b50606083015160808084015261149760a084018261140b565b949350505050565b6000602082840312156114b157600080fd5b5035919050565b6020815260008251608060208401526114d460a084018261140b565b905060208401516040840152604084015160608401526060840151151560808401528091505092915050565b6000806040838503121561151357600080fd5b823591506115236020840161139a565b90509250929050565b60008083601f84011261153e57600080fd5b50813567ffffffffffffffff81111561155657600080fd5b60208301915083602082850101111561156e57600080fd5b9250929050565b6000806000806060858703121561158b57600080fd5b843567ffffffffffffffff8111156115a257600080fd5b6115ae8782880161152c565b90989097506020870135966040013595509350505050565b600080602083850312156115d957600080fd5b823567ffffffffffffffff8111156115f057600080fd5b6115fc8582860161152c565b90969095509350505050565b6000806040838503121561161b57600080fd5b6116248361139a565b915060208301356002811061163857600080fd5b809150509250929050565b600181811c9082168061165757607f821691505b60208210810361167757634e487b7160e01b600052602260045260246000fd5b50919050565b60e08152600080895461168f81611643565b8060e08601526101006001808416600081146116b257600181146116cc576116fd565b60ff1985168884015283151560051b8801830195506116fd565b8e60005260208060002060005b868110156116f45781548b82018701529084019082016116d9565b8a018501975050505b50505050508091505087602083015286604083015285606083015261172d60808301866001600160a01b03169052565b61173a60a08301856113e9565b82151560c08301525b98975050505050505050565b60006001820161176f57634e487b7160e01b600052601160045260246000fd5b5060010190565b634e487b7160e01b600052604160045260246000fd5b601f8211156117d8576000816000526020600020601f850160051c810160208610156117b55750805b601f850160051c820191505b818110156117d4578281556001016117c1565b5050505b505050565b67ffffffffffffffff8311156117f5576117f5611776565b611809836118038354611643565b8361178c565b6000601f84116001811461183d57600085156118255750838201355b600019600387901b1c1916600186901b178355611897565b600083815260209020601f19861690835b8281101561186e578685013582556020948501946001909201910161184e565b508682101561188b5760001960f88860031b161c19848701351681555b505060018560011b0183555b5050505050565b81835281816020850137506000828201602090810191909152601f909101601f19169091010190565b60e0815260006118db60e083018a8c61189e565b90508760208301528660408301528560608301526001600160a01b038516608083015261190b60a08301856113e9565b82151560c08301529998505050505050505050565b8681526001600160a01b0386166020820152841515604082015261194760608201856113e9565b60a06080820152600061174360a08301848661189e565b6001600160a01b038416815282151560208201526060810161149760408301846113e956fea264697066735822122074dbd84ddd3b0b057a2162bc0754daf63cdd287e116c3a73381ebd6a8cea471264736f6c63430008160033",
  "linkReferences": {},
  "deployedLinkReferences": {}
}